:1000000009C021C020C01FC01EC01DC01CC01BC015
:100010001AC01AC011241FBECFE9CDBF10E0A0E660
:10002000B0E0E2E0F1E002C005900D92A837B10720
:10003000D9F710E0A8E7B0E001C01D92AB37B107D7
:10004000E1F72CD05CC0DCCF1F920F920FB60F925D
:1000500011248F93AF93BF93EF93FF93E5B1E29594
:10006000E695E770F0E0DF01A05ABF4F8C918093D6
:100070007A00DF01A859BF4F8C9180937900E05935
:10008000FF4F808180937800FF91EF91BF91AF91F6
:100090008F910F900FBE0F901F90189587EF87BB21
:1000A00086E188BB18BA80E485BF85E083BF82E023
:1000B00089BF83E287B988EA86B984E083B98FEF84
:1000C00084BB81E080937A00809378008AEF8093EC
:1000D000790078942FEF28BB9FEF80917A009817D2
:1000E00009F4C19880917900981709F4C298809119
:1000F0007800981709F4C498915079F7ECCFF894E8
:02010000FFCF2F
:10010200EE4B0000FFFF77FF820000FFFF7F000041
:08011200EE82FF000000000076
:00000001FF
