:1000000009C021C020C01FC01EC01DC01CC01BC015
:100010001AC01AC011241FBECFE9CDBF10E0A0E660
:10002000B0E0E0E4F1E002C005900D92A837B1071E
:10003000D9F710E0A8E7B0E001C01D92AB37B107D7
:10004000E1F74BD07BC0DCCF1F920F920FB60F921F
:1000500011248F93AF93BF93EF93FF9385B18035B6
:1000600010F4A0E01EC085B18C3510F4A1E019C0D9
:1000700085B1883610F4A2E014C085B1843710F43D
:10008000A3E00FC02F9902C0A4E00BC085B18C384B
:1000900010F4A5E006C085B1883910F0A7E001C0D2
:1000A000A6E0B0E0FD01E05AFF4F808180937A0026
:1000B000FD01E859FF4F808180937900A059BF4F1F
:1000C0008C9180937800FF91EF91BF91AF918F91C8
:1000D0000F900FBE0F901F90189587EF87BB86E19A
:1000E00088BB18BA80E485BF85E083BF82E089BF02
:1000F00083E287B988EA86B984E083B98FEF84BB4D
:1001000081E080937A00809378008AEF8093790071
:1001100078942FEF28BB9FEF80917A00981709F40D
:10012000C19880917900981709F4C298809178005D
:10013000981709F4C498915079F7ECCFF894FFCF51
:10014000134B0000FF7F77FF000000FFFF1F000040
:080150001382FF000000000013
:00000001FF
